:020000020000FC
:100000000FEF0DBF18E01EBF3F065B4F666D7D070B
:100010007F6F77FC395E797100E80093610001E041
:10002000009361000E94710000EF07B913E018B956
:100030000FEF04B910E015B90FEF10E00AB91BB9C2
:1000400000E00093C100F0E0E8E054911BB961E0EA
:100050009EEF309B0C947600319B0C947600131726
:1000600079F005B300FFF4CF0EE906BDA89A4395D9
:10007000443671F744271F3191F1139515B9E8CF34
:100080001127459B03C0459904C0E2CF459A0C94C3
:10009000280045980C94280026B12330C9F2309BE3
:1000A0000C945700319B0C9463000C94280026B1EB
:1000B00020FF0C9457003F3059F23395E60F5491CE
:1000C0005BB90C94280026B121FF0C9463003030FA
:1000D00099F03A95E61B54915BB90C9428001127CE
:1000E000089505E005BD0EE906BD08958EEF8A95D9
:0C00F000F1F79A95D9F7D0CF0C942800B6
:00000001FF
